{
  "contractName": "Marketplace",
  "abi": [
    {
      "inputs": [],
      "payable": false,
      "stateMutability": "nonpayable",
      "type": "constructor"
    },
    {
      "anonymous": false,
      "inputs": [
        {
          "indexed": false,
          "internalType": "uint256",
          "name": "id",
          "type": "uint256"
        },
        {
          "indexed": false,
          "internalType": "string",
          "name": "name",
          "type": "string"
        },
        {
          "indexed": false,
          "internalType": "uint256",
          "name": "price",
          "type": "uint256"
        },
        {
          "indexed": false,
          "internalType": "address payable",
          "name": "owner",
          "type": "address"
        },
        {
          "indexed": false,
          "internalType": "bool",
          "name": "purchased",
          "type": "bool"
        }
      ],
      "name": "ProductCreated",
      "type": "event"
    },
    {
      "anonymous": false,
      "inputs": [
        {
          "indexed": false,
          "internalType": "uint256",
          "name": "id",
          "type": "uint256"
        },
        {
          "indexed": false,
          "internalType": "string",
          "name": "name",
          "type": "string"
        },
        {
          "indexed": false,
          "internalType": "uint256",
          "name": "price",
          "type": "uint256"
        },
        {
          "indexed": false,
          "internalType": "address payable",
          "name": "owner",
          "type": "address"
        },
        {
          "indexed": false,
          "internalType": "bool",
          "name": "purchased",
          "type": "bool"
        }
      ],
      "name": "ProductPurchased",
      "type": "event"
    },
    {
      "constant": true,
      "inputs": [],
      "name": "productCount",
      "outputs": [
        {
          "internalType": "uint256",
          "name": "",
          "type": "uint256"
        }
      ],
      "payable": false,
      "stateMutability": "view",
      "type": "function"
    },
    {
      "constant": true,
      "inputs": [
        {
          "internalType": "uint256",
          "name": "",
          "type": "uint256"
        }
      ],
      "name": "products",
      "outputs": [
        {
          "internalType": "uint256",
          "name": "id",
          "type": "uint256"
        },
        {
          "internalType": "string",
          "name": "name",
          "type": "string"
        },
        {
          "internalType": "uint256",
          "name": "price",
          "type": "uint256"
        },
        {
          "internalType": "address payable",
          "name": "owner",
          "type": "address"
        },
        {
          "internalType": "bool",
          "name": "purchased",
          "type": "bool"
        }
      ],
      "payable": false,
      "stateMutability": "view",
      "type": "function"
    },
    {
      "constant": false,
      "inputs": [
        {
          "internalType": "string",
          "name": "_name",
          "type": "string"
        },
        {
          "internalType": "uint256",
          "name": "_price",
          "type": "uint256"
        }
      ],
      "name": "createProduct",
      "outputs": [],
      "payable": false,
      "stateMutability": "nonpayable",
      "type": "function"
    },
    {
      "constant": false,
      "inputs": [
        {
          "internalType": "uint256",
          "name": "_id",
          "type": "uint256"
        }
      ],
      "name": "purchaseProduct",
      "outputs": [],
      "payable": true,
      "stateMutability": "payable",
      "type": "function"
    }
  ],
  "bytecode": "0x60806040526000805534801561001457600080fd5b50610bac806100246000396000f3fe60806040526004361061003f5760003560e01c806338e76a03146100445780637acc0b2014610072578063e0f6ef8714610172578063e9300c6c1461019d575b600080fd5b6100706004803603602081101561005a57600080fd5b810190808035906020019092919050505061026f565b005b34801561007e57600080fd5b506100ab6004803603602081101561009557600080fd5b810190808035906020019092919050505061067c565b60405180868152602001806020018581526020018473ffffffffffffffffffffffffffffffffffffffff1673ffffffffffffffffffffffffffffffffffffffff16815260200183151515158152602001828103825286818151815260200191508051906020019080838360005b83811015610133578082015181840152602081019050610118565b50505050905090810190601f1680156101605780820380516001836020036101000a031916815260200191505b50965050505050505060405180910390f35b34801561017e57600080fd5b50610187610777565b6040518082815260200191505060405180910390f35b3480156101a957600080fd5b5061026d600480360360408110156101c057600080fd5b81019080803590602001906401000000008111156101dd57600080fd5b8201836020820111156101ef57600080fd5b8035906020019184600183028401116401000000008311171561021157600080fd5b91908080601f016020809104026020016040519081016040528093929190818152602001838380828437600081840152601f19601f8201169050808301925050505050505091929192908035906020019092919050505061077d565b005b610277610a25565b600160008381526020019081526020016000206040518060a001604052908160008201548152602001600182018054600181600116156101000203166002900480601f0160208091040260200160405190810160405280929190818152602001828054600181600116156101000203166002900480156103385780601f1061030d57610100808354040283529160200191610338565b820191906000526020600020905b81548152906001019060200180831161031b57829003601f168201915b50505050508152602001600282015481526020016003820160009054906101000a900473ffffffffffffffffffffffffffffffffffffffff1673ffffffffffffffffffffffffffffffffffffffff1673ffffffffffffffffffffffffffffffffffffffff1681526020016003820160149054906101000a900460ff1615151515815250509050600081606001519050600082600001511180156103e15750600054826000015111155b6103ea57600080fd5b81604001513410156103fb57600080fd5b81608001511561040a57600080fd5b3373ffffffffffffffffffffffffffffffffffffffff168173ffffffffffffffffffffffffffffffffffffffff16141561044357600080fd5b33826060019073ffffffffffffffffffffffffffffffffffffffff16908173ffffffffffffffffffffffffffffffffffffffff1681525050600182608001901515908115158152505081600160008581526020019081526020016000206000820151816000015560208201518160010190805190602001906104c6929190610a6c565b506040820151816002015560608201518160030160006101000a81548173ffffffffffffffffffffffffffffffffffffffff021916908373ffffffffffffffffffffffffffffffffffffffff16021790555060808201518160030160146101000a81548160ff0219169083151502179055509050508073ffffffffffffffffffffffffffffffffffffffff166108fc349081150290604051600060405180830381858888f19350505050158015610581573d6000803e3d6000fd5b507f79558d0d7d4d900e2f15c4cc0a665f1acdbe415e44de900ecdd1e5bf12b56f4e838360200151846040015133600160405180868152602001806020018581526020018473ffffffffffffffffffffffffffffffffffffffff1673ffffffffffffffffffffffffffffffffffffffff16815260200183151515158152602001828103825286818151815260200191508051906020019080838360005b8381101561063957808201518184015260208101905061061e565b50505050905090810190601f1680156106665780820380516001836020036101000a031916815260200191505b50965050505050505060405180910390a1505050565b6001602052806000526040600020600091509050806000015490806001018054600181600116156101000203166002900480601f01602080910402602001604051908101604052809291908181526020018280546001816001161561010002031660029004801561072e5780601f106107035761010080835404028352916020019161072e565b820191906000526020600020905b81548152906001019060200180831161071157829003601f168201915b5050505050908060020154908060030160009054906101000a900473ffffffffffffffffffffffffffffffffffffffff16908060030160149054906101000a900460ff16905085565b60005481565b60008251116107d7576040517f08c379a000000000000000000000000000000000000000000000000000000000815260040180806020018281038252603f815260200180610b12603f913960400191505060405180910390fd5b60008111610830576040517f08c379a0000000000000000000000000000000000000000000000000000000008152600401808060200182810382526027815260200180610b516027913960400191505060405180910390fd5b60008081548092919060010191905055506040518060a0016040528060005481526020018381526020018281526020013373ffffffffffffffffffffffffffffffffffffffff1681526020016000151581525060016000805481526020019081526020016000206000820151816000015560208201518160010190805190602001906108bd929190610a6c565b506040820151816002015560608201518160030160006101000a81548173ffffffffffffffffffffffffffffffffffffffff021916908373ffffffffffffffffffffffffffffffffffffffff16021790555060808201518160030160146101000a81548160ff0219169083151502179055509050507fbc59c0c8165864dcceb377dd07d8f431d4303f8e501cb0a0374a10cc68d71836600054838333600060405180868152602001806020018581526020018473ffffffffffffffffffffffffffffffffffffffff1673ffffffffffffffffffffffffffffffffffffffff16815260200183151515158152602001828103825286818151815260200191508051906020019080838360005b838110156109e35780820151818401526020810190506109c8565b50505050905090810190601f168015610a105780820380516001836020036101000a031916815260200191505b50965050505050505060405180910390a15050565b6040518060a00160405280600081526020016060815260200160008152602001600073ffffffffffffffffffffffffffffffffffffffff1681526020016000151581525090565b828054600181600116156101000203166002900490600052602060002090601f016020900481019282601f10610aad57805160ff1916838001178555610adb565b82800160010185558215610adb579182015b82811115610ada578251825591602001919060010190610abf565b5b509050610ae89190610aec565b5090565b610b0e91905b80821115610b0a576000816000905550600101610af2565b5090565b9056fe50726f64756374204e616d652073686f756c6420626520612076616c6964206e616d65206f66206c656e6774682067726561746572207468616e207a65726f50726f64756374205072696365206d7573742062652067726561746572207468616e207a65726fa265627a7a72315820687bb41d2e55d6cb096ead1d2c3c71ff8f774581c13a09814a5e04aa2f6fe91364736f6c63430005100032",
  "source": "pragma solidity 0.5.16;\r\n\r\n/// @title Marketplace\r\n/// @author Shailendra Kumar Omkar\r\n/// @notice You can use this contract for creating & purchasing Products\r\n/// @dev All function calls are currently implemented without side effects\r\ncontract Marketplace {\r\n\r\n  /// @notice It keeps the counter track of Product which are added\r\n  /// @dev Initializing with zero\r\n    uint public productCount=0;\r\n\r\n  /// Create a struct named Product.\r\n  /// It contain Product details -  id, name, price, owner, purchased\r\n    struct Product{\r\n        uint id;\r\n        string name;\r\n        uint price;\r\n        address payable owner;\r\n        bool purchased;\r\n    }\r\n\r\n\r\n  /// Create a Public mapping that maps ProductCount (a number) to an Product (struct)\r\n\r\n    mapping(uint => Product) public products;\r\n\r\n  /// @notice Create event ProductCreated for EVM logging\r\n  /// @dev This event will be emitted when a new Product has been created\r\n \r\n    event ProductCreated(\r\n        uint id,\r\n        string name,\r\n        uint price,\r\n        address payable owner,\r\n        bool purchased\r\n    );\r\n\r\n  /// @notice Create event ProductPurchased for EVM logging\r\n  /// @dev This event will be emitted when a Product has been purchased\r\n\r\nevent ProductPurchased(\r\n        uint id,\r\n        string name,\r\n        uint price,\r\n        address payable owner,\r\n        bool purchased\r\n    );\r\n\r\n  ///@notice Defining a constrcutor\r\n    constructor() public {}\r\n    \r\n\r\n  /// @notice Creating a Product\r\n  /// @dev It will validate Product Name length & Product Price value\r\n /// @param _name Product Name  _price Product Price\r\n  /// @return ProductCount\r\n  ///         Emit ProductCreated event with associated parameter\r\n    function createProduct(string memory _name, uint _price) public {\r\n      \r\n        require(bytes(_name).length>0 ,\"Product Name should be a valid name of length greater than zero\");\r\n        require(_price >0,\"Product Price must be greater than zero\");\r\n\r\n        productCount++;\r\n        products[productCount] = Product(productCount,_name,_price, msg.sender,false);\r\n\r\n        emit ProductCreated(productCount,_name,_price, msg.sender,false);\r\n        \r\n    }\r\n\r\n   /// @notice Purchasing a Product\r\n   /// @dev It will check for valid Product Id, \r\n   ///      Product Price to purchase\r\n   ///      Product is not already purchased\r\n   ///      Buyer is not same as seller\r\n   /// @param _id product ID\r\n   /// @return Transfer the owneership to Buyer & amount to seller\r\n   ///         Emit ProductPurchased event with associated parameter\r\n    function purchaseProduct(uint _id) public payable{\r\n    Product memory _product = products[_id];\r\n\r\n    address payable seller = _product.owner;\r\n\r\n    require(_product.id > 0 && _product.id <= productCount);\r\n    require((msg.value >= _product.price));\r\n    require(!_product.purchased);\r\n    require(seller != msg.sender);\r\n\r\n\r\n    _product.owner = msg.sender;\r\n    _product.purchased = true;\r\n    products[_id] = _product;\r\n\r\n    address(seller).transfer(msg.value);\r\n\r\n    emit ProductPurchased(_id,_product.name,_product.price,msg.sender,true);\r\n    }\r\n}",
  "sourcePath": "C:/Users/Neha/Desktop/Omkar/Blockchain/Consensys/FinalProject/DApp_Marketplace/src/contracts/Marketplace.sol",
  "compiler": {
    "name": "solc",
    "version": "0.5.16+commit.9c3226ce.Emscripten.clang"
  },
  "schemaVersion": "3.2.5",
  "updatedAt": "2020-11-17T15:10:56.058Z",
  "networkType": "ethereum",
  "devdoc": {
    "author": "Shailendra Kumar Omkar",
    "details": "All function calls are currently implemented without side effects",
    "methods": {
      "createProduct(string,uint256)": {
        "details": "It will validate Product Name length & Product Price value",
        "params": {
          "_name": "Product Name  _price Product Price"
        },
        "return": "ProductCount         Emit ProductCreated event with associated parameter"
      },
      "purchaseProduct(uint256)": {
        "details": "It will check for valid Product Id,       Product Price to purchase      Product is not already purchased      Buyer is not same as seller",
        "params": {
          "_id": "product ID"
        },
        "return": "Transfer the owneership to Buyer & amount to seller         Emit ProductPurchased event with associated parameter"
      }
    },
    "title": "Marketplace"
  },
  "userdoc": {
    "methods": {
      "constructor": "Defining a constrcutor",
      "createProduct(string,uint256)": {
        "notice": "Creating a Product"
      },
      "purchaseProduct(uint256)": {
        "notice": "Purchasing a Product"
      }
    },
    "notice": "You can use this contract for creating & purchasing Products"
  }
}